:03000000020800F3
:0C080000787FE4F6D8FD758109020847F6
:10091D005041524B494E472046554C4C2000534CAC
:0D092D004F5453204C4546543A2000200002
:04099600020800054E
:10090000E4FFFEE4FDFC0DBD00010CED64644C70E1
:0C091000F50FBF00010EEF64144E70E7FD
:01091C0022B8
:0E097A008FA0C2B0C2B1D2B2120900C2B22226
:0E0988008FA0D2B0C2B1D2B2120900C2B22208
:1009670012093AFF600C120988740129F9E43AFA6E
:0309770080EE22ED
:100953007F3812097A7F0C12097A7F0112097A7F94
:040963008002097A8B
:1008D6007F8012097AE50945087BFF70067A097957
:1008E6001D80137A09792B120967E5092430FF1256
:0A08F60009887A097938120967228F
:10088C001209531208D620901E120900209018D37A
:10089C00E5099400E508648094804008E509150991
:1008AC00700215083090FD2091D91209002091D3C7
:1008BC00C3E5099405E5086480948050080509E5B2
:0A08CC0009700205082091BB80FBB3
:10080C0002088CE493A3F8E493A34003F68001F26E
:10081C0008DFF48029E493A3F85407240CC8C333ED
:10082C00C4540F4420C8834004F456800146F6DFBC
:10083C00E4800B0102040810204080900996E47EAD
:10084C00019360BCA3FF543F30E509541FFEE493B1
:10085C00A360010ECF54C025E060A840B8E493A378
:10086C00FAE493A3F8E493A3C8C582C8CAC583CAA3
:10087C00F0A3C8C582C8CAC583CADFE9DEE780BE5B
:01099A00005C
:10093A00BB010689828A83E0225002E722BBFE02BB
:09094A00E32289828A83E49322EE
:00000001FF
